:0300000002026D8C
:0C026D00787FE4F6D8FD758120020003C4
:1000DC000020002000200020002000200020002014
:1000EC000020002020002000200020002000200004
:1000FC002000200020002000414243444546474850
:10010C003031323334353637002053494D61495242
:10011C0020646973706C61792000207777772E6C7E
:10012C0063642D6C636D2E636E2000A7A7A7A7A731
:0D013C00A7A7A7A7A7A7A7A7A7A7A7A7A73B
:040227007F057E00D1
:10022B00EF1FAA0670011E4A600BE4FDEDC3947D1F
:05023B0050EE0D80F7FC
:01024000229B
:0802790030A10430A0FA22229A
:10025900C2B0C2B400000000A2979200D2B4A200BA
:03026900E433FF7C
:01026C00226F
:0C01E5007FE87E0312022B1202797F01DA
:1001F100AE07120259EF640160F8C2B0C2B7000045
:090201008E9000000000D2B7222B
:07028100EF4480FF0201F1D0
:06020A00ED90010493FFDA
:10021000AE07120259EF640160F8D2B0C2B78E90F7
:0702200000000000D2B7222C
:10014900E4FDED4440FF1201F17F1F1202100DBDC5
:1001590008F07F481201F17F1F1202107D01ED4462
:1001690048FF1201F17F111202100DBD07F07F4FF8
:100179001201F17F1F120210E4FDED30E00A445034
:10018900FF1201F17F158009ED4450FF1201F17F43
:080199000A1202100DBD08E27C
:0101A100223B
:10024100120259EF640160F87590FFD2B0C2B4AFE9
:070251009000000000D2B490
:010258002283
:1001A2007F0F7E0012022B7F011201F11202277FC4
:1001B200381201F11202277F381201F11202277F51
:1001C200381201F11202277F0C1201F11202277F6D
:1001D200061201F11202277F011201F17F057E0052
:0301E20002022BEB
:100003001201A21201497F017E0012022B7F01120D
:1000130001F1E4FF120281E4FDE4FF1202100DBDC1
:1000230014F77F40120281E4FDE4FF1202100DBDBC
:1000330014F71201E5E4FF120281E4FD7F021202CC
:10004300100DBD14F77F40120281E4FD7F021202FE
:10005300100DBD14F71201E5E4FF120281E4FD1255
:10006300020A0DBD14F97F40120281E4FD12020A57
:100073000DBD14F91201E5E4FF120281E4FDED90D8
:10008300011593FF1202100DBD14F37F401202817C
:10009300E4FDED90011593FF1202100DBD14F31250
:1000A30001E5E4FF120281E4FDED90012693FF6078
:1000B300061202100D80F27F40120281E4FDED90E2
:1000C300012693FF60061202100D80F27FE87E0383
:0900D30012022B12027902001541
:00000001FF
