:03000000020219E0
:0C021900787FE4F6D8FD75810A0200032E
:1000970020534D4961495220646973706C6179201E
:1000A700FFFFFFFFFFFFFFFFFFFFFFFFFFFFFFFF59
:1000B700207777772E6C63642D6C636D2E636E20CB
:1000C7004142434445464748303132333435363769
:1000D700A7A7A7A7A7A7A7A7A7A7A7A7A7A7A7A7A9
:1000E700AA55AA55AA55AA55FF111111111111FFA9
:0A013B007F141201EC1202257F80F0
:10014500C2B6C29700D29500C29500C297D295005B
:10015500C2957E80EE60105F24FF9297D29500C213
:0901650095EEC313FE80EDD2B645
:01016E00226E
:0802250030A10430A0FA2222EE
:100203007E80EE60105F24FF9297D29500C295EE38
:05021300C313FE80EDA5
:0102180022C3
:1001BC00C2B6D29700D29500C295C29700D29500D4
:0801CC00C295120203D2B62213
:0B00F7001201457A0079A77BFF7F1003
:080102008B088A09890AAD0788
:10010A00C2B6D29700D29500C295C29700D2950086
:10011A00C295E4FCECC39D5015AB08AA09A90A8C48
:10012A008275830012016FFF1202030C80E6D2B6B9
:01013A0022A2
:1001D4007F381201457F061201457F021201451F37
:0801E4001201457F0C020145E8
:1001EC00E4FEEEC39F500FE4FDE4FC0CBC64FC0D7C
:0601FC00BDC8F60E80EC08
:0102020022D9
:10019C007F401201457BFF7A0079E77F081201024C
:1001AC007F481201457BFF7A0079EF7F080201023C
:10000300C2951201D412019C12019C7F801200F749
:100013007FC01200F712013BE4FDE4FF1201BC0DA7
:10002300BD10F77FC0120145E4FDE4FF1201BC0DD2
:10003300BD10F712013B7A0079C71200FE7FC01290
:1000430001457BFF7A0079C77F1012010212013B41
:100053007BFF7A0079977F101201027FC01201455E
:100063007BFF7A0079977F1012010212013B7BFF1D
:100073007A0079B77F101201027FC01201457BFF1E
:100083007A0079B77F101201027F141201EC120279
:040093002502000B37
:10016F00BB010CE58229F582E5833AF583E0225045
:10017F0006E92582F8E622BBFE06E92582F8E2228F
:0D018F00E58229F582E5833AF583E49322A9
:00000001FF
